{
  "_format": "hh-sol-artifact-1",
  "contractName": "Upload",
  "sourceName": "contracts/Upload.sol",
  "abi": [
    {
      "inputs": [],
      "stateMutability": "nonpayable",
      "type": "constructor"
    },
    {
      "inputs": [
        {
          "internalType": "address",
          "name": "_user",
          "type": "address"
        },
        {
          "internalType": "string",
          "name": "url",
          "type": "string"
        }
      ],
      "name": "add",
      "outputs": [],
      "stateMutability": "nonpayable",
      "type": "function"
    },
    {
      "inputs": [
        {
          "components": [
            {
              "internalType": "string",
              "name": "diseases",
              "type": "string"
            },
            {
              "internalType": "string",
              "name": "medication",
              "type": "string"
            },
            {
              "internalType": "bool",
              "name": "status",
              "type": "bool"
            }
          ],
          "internalType": "struct Upload.Treatment",
          "name": "_t",
          "type": "tuple"
        }
      ],
      "name": "addTreatment",
      "outputs": [],
      "stateMutability": "nonpayable",
      "type": "function"
    },
    {
      "inputs": [
        {
          "internalType": "address",
          "name": "_user",
          "type": "address"
        }
      ],
      "name": "allow",
      "outputs": [],
      "stateMutability": "nonpayable",
      "type": "function"
    },
    {
      "inputs": [],
      "name": "appointmentCount",
      "outputs": [
        {
          "internalType": "uint256",
          "name": "",
          "type": "uint256"
        }
      ],
      "stateMutability": "view",
      "type": "function"
    },
    {
      "inputs": [
        {
          "internalType": "uint256",
          "name": "",
          "type": "uint256"
        }
      ],
      "name": "appointmentList",
      "outputs": [
        {
          "internalType": "address",
          "name": "",
          "type": "address"
        }
      ],
      "stateMutability": "view",
      "type": "function"
    },
    {
      "inputs": [
        {
          "internalType": "address",
          "name": "_user",
          "type": "address"
        }
      ],
      "name": "disallow",
      "outputs": [],
      "stateMutability": "nonpayable",
      "type": "function"
    },
    {
      "inputs": [
        {
          "internalType": "address",
          "name": "_user",
          "type": "address"
        }
      ],
      "name": "display",
      "outputs": [
        {
          "internalType": "string[]",
          "name": "",
          "type": "string[]"
        }
      ],
      "stateMutability": "view",
      "type": "function"
    },
    {
      "inputs": [
        {
          "internalType": "address",
          "name": "_user",
          "type": "address"
        }
      ],
      "name": "displaydiseases",
      "outputs": [
        {
          "components": [
            {
              "internalType": "string",
              "name": "diseases",
              "type": "string"
            },
            {
              "internalType": "string",
              "name": "medication",
              "type": "string"
            },
            {
              "internalType": "bool",
              "name": "status",
              "type": "bool"
            }
          ],
          "internalType": "struct Upload.Treatment[]",
          "name": "",
          "type": "tuple[]"
        }
      ],
      "stateMutability": "view",
      "type": "function"
    },
    {
      "inputs": [],
      "name": "doctorCount",
      "outputs": [
        {
          "internalType": "uint256",
          "name": "",
          "type": "uint256"
        }
      ],
      "stateMutability": "view",
      "type": "function"
    },
    {
      "inputs": [
        {
          "internalType": "uint256",
          "name": "",
          "type": "uint256"
        }
      ],
      "name": "doctorList",
      "outputs": [
        {
          "internalType": "address",
          "name": "",
          "type": "address"
        }
      ],
      "stateMutability": "view",
      "type": "function"
    },
    {
      "inputs": [],
      "name": "getAppointmentCount",
      "outputs": [
        {
          "internalType": "uint256",
          "name": "",
          "type": "uint256"
        }
      ],
      "stateMutability": "view",
      "type": "function"
    },
    {
      "inputs": [
        {
          "internalType": "address",
          "name": "_address",
          "type": "address"
        }
      ],
      "name": "getAppointmentPerPatient",
      "outputs": [
        {
          "internalType": "uint256",
          "name": "",
          "type": "uint256"
        }
      ],
      "stateMutability": "view",
      "type": "function"
    },
    {
      "inputs": [],
      "name": "getDoctorCount",
      "outputs": [
        {
          "internalType": "uint256",
          "name": "",
          "type": "uint256"
        }
      ],
      "stateMutability": "view",
      "type": "function"
    },
    {
      "inputs": [],
      "name": "getDoctorDetails",
      "outputs": [
        {
          "components": [
            {
              "internalType": "string",
              "name": "name",
              "type": "string"
            },
            {
              "internalType": "uint256",
              "name": "phone",
              "type": "uint256"
            },
            {
              "internalType": "string",
              "name": "gender",
              "type": "string"
            },
            {
              "internalType": "string",
              "name": "dob",
              "type": "string"
            },
            {
              "internalType": "string",
              "name": "qualification",
              "type": "string"
            },
            {
              "internalType": "string",
              "name": "major",
              "type": "string"
            }
          ],
          "internalType": "struct Upload.Doctors",
          "name": "",
          "type": "tuple"
        }
      ],
      "stateMutability": "view",
      "type": "function"
    },
    {
      "inputs": [],
      "name": "getDoctorName",
      "outputs": [
        {
          "internalType": "string",
          "name": "",
          "type": "string"
        }
      ],
      "stateMutability": "view",
      "type": "function"
    },
    {
      "inputs": [],
      "name": "getPatientCount",
      "outputs": [
        {
          "internalType": "uint256",
          "name": "",
          "type": "uint256"
        }
      ],
      "stateMutability": "view",
      "type": "function"
    },
    {
      "inputs": [],
      "name": "getPatientDetails",
      "outputs": [
        {
          "components": [
            {
              "internalType": "string",
              "name": "name",
              "type": "string"
            },
            {
              "internalType": "uint256",
              "name": "phone",
              "type": "uint256"
            },
            {
              "internalType": "string",
              "name": "gender",
              "type": "string"
            },
            {
              "internalType": "string",
              "name": "dob",
              "type": "string"
            },
            {
              "internalType": "uint256",
              "name": "height",
              "type": "uint256"
            },
            {
              "internalType": "uint256",
              "name": "weight",
              "type": "uint256"
            },
            {
              "internalType": "string",
              "name": "houseaddr",
              "type": "string"
            },
            {
              "internalType": "string",
              "name": "bloodgroup",
              "type": "string"
            },
            {
              "internalType": "string",
              "name": "emergencyName",
              "type": "string"
            },
            {
              "internalType": "string",
              "name": "emergencyContact",
              "type": "string"
            }
          ],
          "internalType": "struct Upload.Patients",
          "name": "",
          "type": "tuple"
        }
      ],
      "stateMutability": "view",
      "type": "function"
    },
    {
      "inputs": [],
      "name": "getPatientName",
      "outputs": [
        {
          "internalType": "string",
          "name": "",
          "type": "string"
        }
      ],
      "stateMutability": "view",
      "type": "function"
    },
    {
      "inputs": [],
      "name": "getPermissionGrantedCount",
      "outputs": [
        {
          "internalType": "uint256",
          "name": "",
          "type": "uint256"
        }
      ],
      "stateMutability": "view",
      "type": "function"
    },
    {
      "inputs": [],
      "name": "getSignatureHash",
      "outputs": [
        {
          "internalType": "string",
          "name": "",
          "type": "string"
        }
      ],
      "stateMutability": "view",
      "type": "function"
    },
    {
      "inputs": [],
      "name": "getTreatments",
      "outputs": [
        {
          "components": [
            {
              "internalType": "string",
              "name": "diseases",
              "type": "string"
            },
            {
              "internalType": "string",
              "name": "medication",
              "type": "string"
            },
            {
              "internalType": "bool",
              "name": "status",
              "type": "bool"
            }
          ],
          "internalType": "struct Upload.Treatment[]",
          "name": "",
          "type": "tuple[]"
        }
      ],
      "stateMutability": "view",
      "type": "function"
    },
    {
      "inputs": [],
      "name": "getUserAddress",
      "outputs": [
        {
          "internalType": "address",
          "name": "",
          "type": "address"
        }
      ],
      "stateMutability": "view",
      "type": "function"
    },
    {
      "inputs": [
        {
          "internalType": "string",
          "name": "_name",
          "type": "string"
        }
      ],
      "name": "getfulldetails",
      "outputs": [
        {
          "components": [
            {
              "internalType": "string",
              "name": "name",
              "type": "string"
            },
            {
              "internalType": "uint256",
              "name": "phone",
              "type": "uint256"
            },
            {
              "internalType": "string",
              "name": "gender",
              "type": "string"
            },
            {
              "internalType": "string",
              "name": "dob",
              "type": "string"
            },
            {
              "internalType": "string",
              "name": "qualification",
              "type": "string"
            },
            {
              "internalType": "string",
              "name": "major",
              "type": "string"
            }
          ],
          "internalType": "struct Upload.Doctors",
          "name": "",
          "type": "tuple"
        }
      ],
      "stateMutability": "view",
      "type": "function"
    },
    {
      "inputs": [
        {
          "internalType": "address",
          "name": "_addr",
          "type": "address"
        }
      ],
      "name": "isDoctors",
      "outputs": [
        {
          "internalType": "bool",
          "name": "",
          "type": "bool"
        }
      ],
      "stateMutability": "view",
      "type": "function"
    },
    {
      "inputs": [
        {
          "internalType": "address",
          "name": "_addr",
          "type": "address"
        }
      ],
      "name": "isPatients",
      "outputs": [
        {
          "internalType": "bool",
          "name": "",
          "type": "bool"
        }
      ],
      "stateMutability": "view",
      "type": "function"
    },
    {
      "inputs": [],
      "name": "nbOfUsers",
      "outputs": [
        {
          "internalType": "uint256",
          "name": "",
          "type": "uint256"
        }
      ],
      "stateMutability": "view",
      "type": "function"
    },
    {
      "inputs": [],
      "name": "owner",
      "outputs": [
        {
          "internalType": "address",
          "name": "",
          "type": "address"
        }
      ],
      "stateMutability": "view",
      "type": "function"
    },
    {
      "inputs": [],
      "name": "patientCount",
      "outputs": [
        {
          "internalType": "uint256",
          "name": "",
          "type": "uint256"
        }
      ],
      "stateMutability": "view",
      "type": "function"
    },
    {
      "inputs": [
        {
          "internalType": "uint256",
          "name": "",
          "type": "uint256"
        }
      ],
      "name": "patientList",
      "outputs": [
        {
          "internalType": "address",
          "name": "",
          "type": "address"
        }
      ],
      "stateMutability": "view",
      "type": "function"
    },
    {
      "inputs": [],
      "name": "permissionGrantedCount",
      "outputs": [
        {
          "internalType": "uint256",
          "name": "",
          "type": "uint256"
        }
      ],
      "stateMutability": "view",
      "type": "function"
    },
    {
      "inputs": [
        {
          "internalType": "string",
          "name": "_signature",
          "type": "string"
        },
        {
          "internalType": "string",
          "name": "_role",
          "type": "string"
        }
      ],
      "name": "register",
      "outputs": [],
      "stateMutability": "nonpayable",
      "type": "function"
    },
    {
      "inputs": [
        {
          "components": [
            {
              "internalType": "string",
              "name": "name",
              "type": "string"
            },
            {
              "internalType": "uint256",
              "name": "phone",
              "type": "uint256"
            },
            {
              "internalType": "string",
              "name": "gender",
              "type": "string"
            },
            {
              "internalType": "string",
              "name": "dob",
              "type": "string"
            },
            {
              "internalType": "uint256",
              "name": "height",
              "type": "uint256"
            },
            {
              "internalType": "uint256",
              "name": "weight",
              "type": "uint256"
            },
            {
              "internalType": "string",
              "name": "houseaddr",
              "type": "string"
            },
            {
              "internalType": "string",
              "name": "bloodgroup",
              "type": "string"
            },
            {
              "internalType": "string",
              "name": "emergencyName",
              "type": "string"
            },
            {
              "internalType": "string",
              "name": "emergencyContact",
              "type": "string"
            }
          ],
          "internalType": "struct Upload.Patients",
          "name": "_p",
          "type": "tuple"
        }
      ],
      "name": "setPatientDetails",
      "outputs": [],
      "stateMutability": "nonpayable",
      "type": "function"
    },
    {
      "inputs": [],
      "name": "setasDoctor",
      "outputs": [],
      "stateMutability": "nonpayable",
      "type": "function"
    },
    {
      "inputs": [],
      "name": "setasPatient",
      "outputs": [],
      "stateMutability": "nonpayable",
      "type": "function"
    },
    {
      "inputs": [
        {
          "components": [
            {
              "internalType": "string",
              "name": "name",
              "type": "string"
            },
            {
              "internalType": "uint256",
              "name": "phone",
              "type": "uint256"
            },
            {
              "internalType": "string",
              "name": "gender",
              "type": "string"
            },
            {
              "internalType": "string",
              "name": "dob",
              "type": "string"
            },
            {
              "internalType": "string",
              "name": "qualification",
              "type": "string"
            },
            {
              "internalType": "string",
              "name": "major",
              "type": "string"
            }
          ],
          "internalType": "struct Upload.Doctors",
          "name": "_d",
          "type": "tuple"
        }
      ],
      "name": "setdoctorDetails",
      "outputs": [],
      "stateMutability": "nonpayable",
      "type": "function"
    },
    {
      "inputs": [],
      "name": "shareAccess",
      "outputs": [
        {
          "components": [
            {
              "internalType": "address",
              "name": "user",
              "type": "address"
            },
            {
              "internalType": "bool",
              "name": "access",
              "type": "bool"
            }
          ],
          "internalType": "struct Upload.Access[]",
          "name": "",
          "type": "tuple[]"
        }
      ],
      "stateMutability": "view",
      "type": "function"
    },
    {
      "inputs": [
        {
          "internalType": "string",
          "name": "diseases",
          "type": "string"
        },
        {
          "internalType": "bool",
          "name": "status",
          "type": "bool"
        }
      ],
      "name": "updateTreatmentStatus",
      "outputs": [],
      "stateMutability": "nonpayable",
      "type": "function"
    }
  ],
  "bytecode": "0x6080604052600060105560006011556000601255600060135534801561002457600080fd5b50336000806101000a81548173ffffffffffffffffffffffffffffffffffffffff021916908373ffffffffffffffffffffffffffffffffffffffff16021790555060006001819055506000600c60003373ffffffffffffffffffffffffffffffffffffffff1673ffffffffffffffffffffffffffffffffffffffff16815260200190815260200160002060006101000a81548160ff0219169083151502179055506000600d60003373ffffffffffffffffffffffffffffffffffffffff1673ffffffffffffffffffffffffffffffffffffffff16815260200190815260200160002060006101000a81548160ff0219169083151502179055506147ed8061012c6000396000f3fe608060405234801561001057600080fd5b50600436106102275760003560e01c8063a0303c4111610130578063d79f69cf116100b8578063eb39113f1161007c578063eb39113f14610646578063ebc3eee814610676578063eebc3fb214610694578063f2f4adae146106b2578063ff9913e8146106d057610227565b8063d79f69cf1461056a578063dcd6d7451461059a578063e421d3b8146105b6578063e6fce0d2146105e6578063e93a15b91461061657610227565b8063bc8bef81116100ff578063bc8bef81146104d6578063c0cb24ba146104f4578063c127ae4114610512578063c190665b14610530578063c39c64731461054e57610227565b8063a0303c4114610450578063a9ed9cb81461046e578063aaaeed7c1461048a578063babb1d41146104a657610227565b80635b59bd53116101b357806379111c1c1161018257806379111c1c146103a85780637a006a99146103c6578063870be7dd146103f65780638bb25419146104145780638da5cb5b1461043257610227565b80635b59bd531461033457806366c72aa71461033e57806377ae39d51461036e57806378522bc41461038a57610227565b80632796c8f0116101fa5780632796c8f0146102b657806329e4afbb146102d45780633025a98d146102f257806336d6da55146102fc5780633ffbd47f1461031857610227565b806307ad77811461022c578063126793231461024a578063127ca4b41461026857806324c24b2b14610298575b600080fd5b6102346106ec565b604051610241919061336c565b60405180910390f35b610252610a27565b60405161025f919061339d565b60405180910390f35b610282600480360381019061027d91906133f8565b610a2d565b60405161028f9190613466565b60405180910390f35b6102a0610a6c565b6040516102ad919061339d565b60405180910390f35b6102be610a76565b6040516102cb91906134cb565b60405180910390f35b6102dc610b48565b6040516102e9919061339d565b60405180910390f35b6102fa610b52565b005b6103166004803603810190610311919061364e565b610bac565b005b610332600480360381019061032d91906136aa565b610c22565b005b61033c610f25565b005b61035860048036038101906103539190613722565b610f7f565b604051610365919061376a565b60405180910390f35b61038860048036038101906103839190613949565b610fd5565b005b61039261133f565b60405161039f919061339d565b60405180910390f35b6103b0611345565b6040516103bd919061339d565b60405180910390f35b6103e060048036038101906103db9190613992565b61134f565b6040516103ed919061336c565b60405180910390f35b6103fe61166b565b60405161040b91906134cb565b60405180910390f35b61041c61173d565b6040516104299190613b03565b60405180910390f35b61043a61191b565b6040516104479190613466565b60405180910390f35b61045861193f565b604051610465919061339d565b60405180910390f35b61048860048036038101906104839190613722565b611945565b005b6104a4600480360381019061049f9190613b51565b611b67565b005b6104c060048036038101906104bb91906133f8565b611c58565b6040516104cd9190613466565b60405180910390f35b6104de611c97565b6040516104eb9190613c9a565b60405180910390f35b6104fc611da0565b604051610509919061339d565b60405180910390f35b61051a611da6565b60405161052791906134cb565b60405180910390f35b610538611f48565b604051610545919061339d565b60405180910390f35b61056860048036038101906105639190613d58565b611f52565b005b610584600480360381019061057f9190613722565b61200f565b6040516105919190613b03565b60405180910390f35b6105b460048036038101906105af9190613ecd565b6122ee565b005b6105d060048036038101906105cb9190613722565b612575565b6040516105dd919061376a565b60405180910390f35b61060060048036038101906105fb91906133f8565b6125cb565b60405161060d9190613466565b60405180910390f35b610630600480360381019061062b9190613722565b61260a565b60405161063d919061339d565b60405180910390f35b610660600480360381019061065b9190613722565b612653565b60405161066d9190613fd8565b60405180910390f35b61067e61286a565b60405161068b9190613466565b60405180910390f35b61069c6128d4565b6040516106a9919061339d565b60405180910390f35b6106ba6128da565b6040516106c791906140fe565b60405180910390f35b6106ea60048036038101906106e59190613722565b612d4e565b005b6106f4613195565b600760003373ffffffffffffffffffffffffffffffffffffffff1673ffffffffffffffffffffffffffffffffffffffff1681526020019081526020016000206040518060c001604052908160008201805461074e9061414f565b80601f016020809104026020016040519081016040528092919081815260200182805461077a9061414f565b80156107c75780601f1061079c576101008083540402835291602001916107c7565b820191906000526020600020905b8154815290600101906020018083116107aa57829003601f168201915b50505050508152602001600182015481526020016002820180546107ea9061414f565b80601f01602080910402602001604051908101604052809291908181526020018280546108169061414f565b80156108635780601f1061083857610100808354040283529160200191610863565b820191906000526020600020905b81548152906001019060200180831161084657829003601f168201915b5050505050815260200160038201805461087c9061414f565b80601f01602080910402602001604051908101604052809291908181526020018280546108a89061414f565b80156108f55780601f106108ca576101008083540402835291602001916108f5565b820191906000526020600020905b8154815290600101906020018083116108d857829003601f168201915b5050505050815260200160048201805461090e9061414f565b80601f016020809104026020016040519081016040528092919081815260200182805461093a9061414f565b80156109875780601f1061095c57610100808354040283529160200191610987565b820191906000526020600020905b81548152906001019060200180831161096a57829003601f168201915b505050505081526020016005820180546109a09061414f565b80601f01602080910402602001604051908101604052809291908181526020018280546109cc9061414f565b8015610a195780601f106109ee57610100808354040283529160200191610a19565b820191906000526020600020905b8154815290600101906020018083116109fc57829003601f168201915b505050505081525050905090565b60015481565b60038181548110610a3d57600080fd5b906000526020600020016000915054906101000a900473ffffffffffffffffffffffffffffffffffffffff1681565b6000601354905090565b6060600760003373ffffffffffffffffffffffffffffffffffffffff1673ffffffffffffffffffffffffffffffffffffffff1681526020019081526020016000206000018054610ac59061414f565b80601f0160208091040260200160405190810160405280929190818152602001828054610af19061414f565b8015610b3e5780601f10610b1357610100808354040283529160200191610b3e565b820191906000526020600020905b815481529060010190602001808311610b2157829003601f168201915b5050505050905090565b6000601254905090565b6001600d60003373ffffffffffffffffffffffffffffffffffffffff1673ffffffffffffffffffffffffffffffffffffffff16815260200190815260200160002060006101000a81548160ff021916908315150217905550565b601460008373ffffffffffffffffffffffffffffffffffffffff1673ffffffffffffffffffffffffffffffffffffffff16815260200190815260200160002081908060018154018082558091505060019003906000526020600020016000909190919091509081610c1d919061432c565b505050565b600073ffffffffffffffffffffffffffffffffffffffff16600560003373ffffffffffffffffffffffffffffffffffffffff1673ffffffffffffffffffffffffffffffffffffffff16815260200190815260200160002060010160009054906101000a900473ffffffffffffffffffffffffffffffffffffffff1673ffffffffffffffffffffffffffffffffffffffff1614610cf3576040517f08c379a0000000000000000000000000000000000000000000000000000000008152600401610cea9061444a565b60405180910390fd5b600081604051602001610d0691906144a6565b6040516020818303038152906040528051906020012090506000604051602001610d2f90614509565b6040516020818303038152906040528051906020012090506000604051602001610d589061456a565b60405160208183030381529060405280519060200120905084600560003373ffffffffffffffffffffffffffffffffffffffff1673ffffffffffffffffffffffffffffffffffffffff1681526020019081526020016000206000019081610dbf919061432c565b5033600560003373ffffffffffffffffffffffffffffffffffffffff1673ffffffffffffffffffffffffffffffffffffffff16815260200190815260200160002060010160006101000a81548173ffffffffffffffffffffffffffffffffffffffff021916908373ffffffffffffffffffffffffffffffffffffffff16021790555060016000815480929190610e54906145ae565b9190505550818303610ebd576001600d60003373ffffffffffffffffffffffffffffffffffffffff1673ffffffffffffffffffffffffffffffffffffffff16815260200190815260200160002060006101000a81548160ff021916908315150217905550610f1e565b808303610f1d576001600c60003373ffffffffffffffffffffffffffffffffffffffff1673ffffffffffffffffffffffffffffffffffffffff16815260200190815260200160002060006101000a81548160ff0219169083151502179055505b5b5050505050565b6001600c60003373ffffffffffffffffffffffffffffffffffffffff1673ffffffffffffffffffffffffffffffffffffffff16815260200190815260200160002060006101000a81548160ff021916908315150217905550565b6000600d60008373ffffffffffffffffffffffffffffffffffffffff1673ffffffffffffffffffffffffffffffffffffffff16815260200190815260200160002060009054906101000a900460ff169050919050565b610fdd6131cb565b816000015181600001819052508160200151816020018181525050816040015181604001819052508160600151816060018190525081608001518160800181815250508160a001518160a00181815250508160c001518160c001819052508160e001518160e0018190525081610100015181610100018190525081610120015181610120018190525080600660003373ffffffffffffffffffffffffffffffffffffffff1673ffffffffffffffffffffffffffffffffffffffff16815260200190815260200160002060008201518160000190816110bb919061432c565b506020820151816001015560408201518160020190816110db919061432c565b5060608201518160030190816110f1919061432c565b506080820151816004015560a0820151816005015560c082015181600601908161111b919061432c565b5060e0820151816007019081611131919061432c565b50610100820151816008019081611148919061432c565b5061012082015181600901908161115f919061432c565b5090505060008160405160200161117691906140fe565b60405160208183030381529060405280519060200120905080600a60003373ffffffffffffffffffffffffffffffffffffffff1673ffffffffffffffffffffffffffffffffffffffff168152602001908152602001600020819055506002339080600181540180825580915050600190039060005260206000200160009091909190916101000a81548173ffffffffffffffffffffffffffffffffffffffff021916908373ffffffffffffffffffffffffffffffffffffffff1602179055506001600c60003373ffffffffffffffffffffffffffffffffffffffff1673ffffffffffffffffffffffffffffffffffffffff16815260200190815260200160002060006101000a81548160ff0219169083151502179055506001600b60003373ffffffffffffffffffffffffffffffffffffffff1673ffffffffffffffffffffffffffffffffffffffff16815260200190815260200160002060003373ffffffffffffffffffffffffffffffffffffffff1673ffffffffffffffffffffffffffffffffffffffff16815260200190815260200160002060006101000a81548160ff02191690831515021790555060106000815480929190611335906145ae565b9190505550505050565b60115481565b6000601154905090565b611357613195565b60088260405161136791906144a6565b90815260200160405180910390206040518060c00160405290816000820180546113909061414f565b80601f01602080910402602001604051908101604052809291908181526020018280546113bc9061414f565b80156114095780601f106113de57610100808354040283529160200191611409565b820191906000526020600020905b8154815290600101906020018083116113ec57829003601f168201915b505050505081526020016001820154815260200160028201805461142c9061414f565b80601f01602080910402602001604051908101604052809291908181526020018280546114589061414f565b80156114a55780601f1061147a576101008083540402835291602001916114a5565b820191906000526020600020905b81548152906001019060200180831161148857829003601f168201915b505050505081526020016003820180546114be9061414f565b80601f01602080910402602001604051908101604052809291908181526020018280546114ea9061414f565b80156115375780601f1061150c57610100808354040283529160200191611537565b820191906000526020600020905b81548152906001019060200180831161151a57829003601f168201915b505050505081526020016004820180546115509061414f565b80601f016020809104026020016040519081016040528092919081815260200182805461157c9061414f565b80156115c95780601f1061159e576101008083540402835291602001916115c9565b820191906000526020600020905b8154815290600101906020018083116115ac57829003601f168201915b505050505081526020016005820180546115e29061414f565b80601f016020809104026020016040519081016040528092919081815260200182805461160e9061414f565b801561165b5780601f106116305761010080835404028352916020019161165b565b820191906000526020600020905b81548152906001019060200180831161163e57829003601f168201915b5050505050815250509050919050565b6060600660003373ffffffffffffffffffffffffffffffffffffffff1673ffffffffffffffffffffffffffffffffffffffff16815260200190815260200160002060000180546116ba9061414f565b80601f01602080910402602001604051908101604052809291908181526020018280546116e69061414f565b80156117335780601f1061170857610100808354040283529160200191611733565b820191906000526020600020905b81548152906001019060200180831161171657829003601f168201915b5050505050905090565b6060600f60003373ffffffffffffffffffffffffffffffffffffffff1673ffffffffffffffffffffffffffffffffffffffff168152602001908152602001600020600001805480602002602001604051908101604052809291908181526020016000905b8282101561191257838290600052602060002090600302016040518060600160405290816000820180546117d49061414f565b80601f01602080910402602001604051908101604052809291908181526020018280546118009061414f565b801561184d5780601f106118225761010080835404028352916020019161184d565b820191906000526020600020905b81548152906001019060200180831161183057829003601f168201915b505050505081526020016001820180546118669061414f565b80601f01602080910402602001604051908101604052809291908181526020018280546118929061414f565b80156118df5780601f106118b4576101008083540402835291602001916118df565b820191906000526020600020905b8154815290600101906020018083116118c257829003601f168201915b505050505081526020016002820160009054906101000a900460ff161515151581525050815260200190600101906117a1565b50505050905090565b60008054906101000a900473ffffffffffffffffffffffffffffffffffffffff1681565b60105481565b6000601560003373ffffffffffffffffffffffffffffffffffffffff1673ffffffffffffffffffffffffffffffffffffffff16815260200190815260200160002060008373ffffffffffffffffffffffffffffffffffffffff1673ffffffffffffffffffffffffffffffffffffffff16815260200190815260200160002060006101000a81548160ff02191690831515021790555060005b601660003373ffffffffffffffffffffffffffffffffffffffff1673ffffffffffffffffffffffffffffffffffffffff16815260200190815260200160002080549050811015611b63578173ffffffffffffffffffffffffffffffffffffffff16601660003373ffffffffffffffffffffffffffffffffffffffff1673ffffffffffffffffffffffffffffffffffffffff1681526020019081526020016000208281548110611a8f57611a8e6145f6565b5b9060005260206000200160000160009054906101000a900473ffffffffffffffffffffffffffffffffffffffff1673ffffffffffffffffffffffffffffffffffffffff1603611b50576000601660003373ffffffffffffffffffffffffffffffffffffffff1673ffffffffffffffffffffffffffffffffffffffff1681526020019081526020016000208281548110611b2b57611b2a6145f6565b5b9060005260206000200160000160146101000a81548160ff0219169083151502179055505b8080611b5b906145ae565b9150506119dd565b5050565b6000600f60003373ffffffffffffffffffffffffffffffffffffffff1673ffffffffffffffffffffffffffffffffffffffff168152602001908152602001600020600001905060005b8180549050811015611c52578380519060200120828281548110611bd757611bd66145f6565b5b9060005260206000209060030201600001604051611bf591906146c8565b604051809103902003611c3f5782828281548110611c1657611c156145f6565b5b906000526020600020906003020160020160006101000a81548160ff0219169083151502179055505b8080611c4a906145ae565b915050611bb0565b50505050565b60028181548110611c6857600080fd5b906000526020600020016000915054906101000a900473ffffffffffffffffffffffffffffffffffffffff1681565b6060601660003373ffffffffffffffffffffffffffffffffffffffff1673ffffffffffffffffffffffffffffffffffffffff168152602001908152602001600020805480602002602001604051908101604052809291908181526020016000905b82821015611d97578382906000526020600020016040518060400160405290816000820160009054906101000a900473ffffffffffffffffffffffffffffffffffffffff1673ffffffffffffffffffffffffffffffffffffffff1673ffffffffffffffffffffffffffffffffffffffff1681526020016000820160149054906101000a900460ff16151515158152505081526020019060010190611cf8565b50505050905090565b60135481565b6060600560003373ffffffffffffffffffffffffffffffffffffffff1673ffffffffffffffffffffffffffffffffffffffff16815260200190815260200160002060010160009054906101000a900473ffffffffffffffffffffffffffffffffffffffff1673ffffffffffffffffffffffffffffffffffffffff163373ffffffffffffffffffffffffffffffffffffffff1614611e78576040517f08c379a0000000000000000000000000000000000000000000000000000000008152600401611e6f9061472b565b60405180910390fd5b600560003373ffffffffffffffffffffffffffffffffffffffff1673ffffffffffffffffffffffffffffffffffffffff1681526020019081526020016000206000018054611ec59061414f565b80601f0160208091040260200160405190810160405280929190818152602001828054611ef19061414f565b8015611f3e5780601f10611f1357610100808354040283529160200191611f3e565b820191906000526020600020905b815481529060010190602001808311611f2157829003601f168201915b5050505050905090565b6000601054905090565b600f60003373ffffffffffffffffffffffffffffffffffffffff1673ffffffffffffffffffffffffffffffffffffffff1681526020019081526020016000206000018190806001815401808255809150506001900390600052602060002090600302016000909190919091506000820151816000019081611fd3919061432c565b506020820151816001019081611fe9919061432c565b5060408201518160020160006101000a81548160ff021916908315150217905550505050565b60603373ffffffffffffffffffffffffffffffffffffffff168273ffffffffffffffffffffffffffffffffffffffff1614806120d15750601560008373ffffffffffffffffffffffffffffffffffffffff1673ffffffffffffffffffffffffffffffffffffffff16815260200190815260200160002060003373ffffffffffffffffffffffffffffffffffffffff1673ffffffffffffffffffffffffffffffffffffffff16815260200190815260200160002060009054906101000a900460ff165b612110576040517f08c379a000000000000000000000000000000000000000000000000000000000815260040161210790614797565b60405180910390fd5b600f60008373ffffffffffffffffffffffffffffffffffffffff1673ffffffffffffffffffffffffffffffffffffffff168152602001908152602001600020600001805480602002602001604051908101604052809291908181526020016000905b828210156122e357838290600052602060002090600302016040518060600160405290816000820180546121a59061414f565b80601f01602080910402602001604051908101604052809291908181526020018280546121d19061414f565b801561221e5780601f106121f35761010080835404028352916020019161221e565b820191906000526020600020905b81548152906001019060200180831161220157829003601f168201915b505050505081526020016001820180546122379061414f565b80601f01602080910402602001604051908101604052809291908181526020018280546122639061414f565b80156122b05780601f10612285576101008083540402835291602001916122b0565b820191906000526020600020905b81548152906001019060200180831161229357829003601f168201915b505050505081526020016002820160009054906101000a900460ff16151515158152505081526020019060010190612172565b505050509050919050565b6122f6613195565b8160000151816000018190525081602001518160200181815250508160400151816040018190525081606001518160600181905250816080015181608001819052508160a001518160a0018190525080600760003373ffffffffffffffffffffffffffffffffffffffff1673ffffffffffffffffffffffffffffffffffffffff168152602001908152602001600020600082015181600001908161239a919061432c565b506020820151816001015560408201518160020190816123ba919061432c565b5060608201518160030190816123d0919061432c565b5060808201518160040190816123e6919061432c565b5060a08201518160050190816123fc919061432c565b50905050806008836000015160405161241591906144a6565b90815260200160405180910390206000820151816000019081612438919061432c565b50602082015181600101556040820151816002019081612458919061432c565b50606082015181600301908161246e919061432c565b506080820151816004019081612484919061432c565b5060a082015181600501908161249a919061432c565b509050506003339080600181540180825580915050600190039060005260206000200160009091909190916101000a81548173ffffffffffffffffffffffffffffffffffffffff021916908373ffffffffffffffffffffffffffffffffffffffff1602179055506001600d60003373ffffffffffffffffffffffffffffffffffffffff1673ffffffffffffffffffffffffffffffffffffffff16815260200190815260200160002060006101000a81548160ff0219169083151502179055506011600081548092919061256c906145ae565b91905055505050565b6000600c60008373ffffffffffffffffffffffffffffffffffffffff1673ffffffffffffffffffffffffffffffffffffffff16815260200190815260200160002060009054906101000a900460ff169050919050565b600481815481106125db57600080fd5b906000526020600020016000915054906101000a900473ffffffffffffffffffffffffffffffffffffffff1681565b6000600e60008373ffffffffffffffffffffffffffffffffffffffff1673ffffffffffffffffffffffffffffffffffffffff168152602001908152602001600020549050919050565b60603373ffffffffffffffffffffffffffffffffffffffff168273ffffffffffffffffffffffffffffffffffffffff1614806127155750601560008373ffffffffffffffffffffffffffffffffffffffff1673ffffffffffffffffffffffffffffffffffffffff16815260200190815260200160002060003373ffffffffffffffffffffffffffffffffffffffff1673ffffffffffffffffffffffffffffffffffffffff16815260200190815260200160002060009054906101000a900460ff165b612754576040517f08c379a000000000000000000000000000000000000000000000000000000000815260040161274b90614797565b60405180910390fd5b601460008373ffffffffffffffffffffffffffffffffffffffff1673ffffffffffffffffffffffffffffffffffffffff168152602001908152602001600020805480602002602001604051908101604052809291908181526020016000905b8282101561285f5783829060005260206000200180546127d29061414f565b80601f01602080910402602001604051908101604052809291908181526020018280546127fe9061414f565b801561284b5780601f106128205761010080835404028352916020019161284b565b820191906000526020600020905b81548152906001019060200180831161282e57829003601f168201915b5050505050815260200190600101906127b3565b505050509050919050565b6000600560003373ffffffffffffffffffffffffffffffffffffffff1673ffffffffffffffffffffffffffffffffffffffff16815260200190815260200160002060010160009054906101000a900473ffffffffffffffffffffffffffffffffffffffff16905090565b60125481565b6128e26131cb565b600660003373ffffffffffffffffffffffffffffffffffffffff1673ffffffffffffffffffffffffffffffffffffffff1681526020019081526020016000206040518061014001604052908160008201805461293d9061414f565b80601f01602080910402602001604051908101604052809291908181526020018280546129699061414f565b80156129b65780601f1061298b576101008083540402835291602001916129b6565b820191906000526020600020905b81548152906001019060200180831161299957829003601f168201915b50505050508152602001600182015481526020016002820180546129d99061414f565b80601f0160208091040260200160405190810160405280929190818152602001828054612a059061414f565b8015612a525780601f10612a2757610100808354040283529160200191612a52565b820191906000526020600020905b815481529060010190602001808311612a3557829003601f168201915b50505050508152602001600382018054612a6b9061414f565b80601f0160208091040260200160405190810160405280929190818152602001828054612a979061414f565b8015612ae45780601f10612ab957610100808354040283529160200191612ae4565b820191906000526020600020905b815481529060010190602001808311612ac757829003601f168201915b505050505081526020016004820154815260200160058201548152602001600682018054612b119061414f565b80601f0160208091040260200160405190810160405280929190818152602001828054612b3d9061414f565b8015612b8a5780601f10612b5f57610100808354040283529160200191612b8a565b820191906000526020600020905b815481529060010190602001808311612b6d57829003601f168201915b50505050508152602001600782018054612ba39061414f565b80601f0160208091040260200160405190810160405280929190818152602001828054612bcf9061414f565b8015612c1c5780601f10612bf157610100808354040283529160200191612c1c565b820191906000526020600020905b815481529060010190602001808311612bff57829003601f168201915b50505050508152602001600882018054612c359061414f565b80601f0160208091040260200160405190810160405280929190818152602001828054612c619061414f565b8015612cae5780601f10612c8357610100808354040283529160200191612cae565b820191906000526020600020905b815481529060010190602001808311612c9157829003601f168201915b50505050508152602001600982018054612cc79061414f565b80601f0160208091040260200160405190810160405280929190818152602001828054612cf39061414f565b8015612d405780601f10612d1557610100808354040283529160200191612d40565b820191906000526020600020905b815481529060010190602001808311612d2357829003601f168201915b505050505081525050905090565b6001601560003373ffffffffffffffffffffffffffffffffffffffff1673ffffffffffffffffffffffffffffffffffffffff16815260200190815260200160002060008373ffffffffffffffffffffffffffffffffffffffff1673ffffffffffffffffffffffffffffffffffffffff16815260200190815260200160002060006101000a81548160ff021916908315150217905550601760003373ffffffffffffffffffffffffffffffffffffffff1673ffffffffffffffffffffffffffffffffffffffff16815260200190815260200160002060008273ffffffffffffffffffffffffffffffffffffffff1673ffffffffffffffffffffffffffffffffffffffff16815260200190815260200160002060009054906101000a900460ff16156130015760005b601660003373ffffffffffffffffffffffffffffffffffffffff1673ffffffffffffffffffffffffffffffffffffffff16815260200190815260200160002080549050811015612ffb578173ffffffffffffffffffffffffffffffffffffffff16601660003373ffffffffffffffffffffffffffffffffffffffff1673ffffffffffffffffffffffffffffffffffffffff1681526020019081526020016000208281548110612f2757612f266145f6565b5b9060005260206000200160000160009054906101000a900473ffffffffffffffffffffffffffffffffffffffff1673ffffffffffffffffffffffffffffffffffffffff1603612fe8576001601660003373ffffffffffffffffffffffffffffffffffffffff1673ffffffffffffffffffffffffffffffffffffffff1681526020019081526020016000208281548110612fc357612fc26145f6565b5b9060005260206000200160000160146101000a81548160ff0219169083151502179055505b8080612ff3906145ae565b915050612e75565b50613192565b601660003373ffffffffffffffffffffffffffffffffffffffff1673ffffffffffffffffffffffffffffffffffffffff16815260200190815260200160002060405180604001604052808373ffffffffffffffffffffffffffffffffffffffff168152602001600115158152509080600181540180825580915050600190039060005260206000200160009091909190915060008201518160000160006101000a81548173ffffffffffffffffffffffffffffffffffffffff021916908373ffffffffffffffffffffffffffffffffffffffff16021790555060208201518160000160146101000a81548160ff02191690831515021790555050506001601760003373ffffffffffffffffffffffffffffffffffffffff1673ffffffffffffffffffffffffffffffffffffffff16815260200190815260200160002060008373ffffffffffffffffffffffffffffffffffffffff1673ffffffffffffffffffffffffffffffffffffffff16815260200190815260200160002060006101000a81548160ff0219169083151502179055505b50565b6040518060c001604052806060815260200160008152602001606081526020016060815260200160608152602001606081525090565b604051806101400160405280606081526020016000815260200160608152602001606081526020016000815260200160008152602001606081526020016060815260200160608152602001606081525090565b600081519050919050565b600082825260208201905092915050565b60005b8381101561325857808201518184015260208101905061323d565b60008484015250505050565b6000601f19601f8301169050919050565b60006132808261321e565b61328a8185613229565b935061329a81856020860161323a565b6132a381613264565b840191505092915050565b6000819050919050565b6132c1816132ae565b82525050565b600060c08301600083015184820360008601526132e48282613275565b91505060208301516132f960208601826132b8565b50604083015184820360408601526133118282613275565b9150506060830151848203606086015261332b8282613275565b915050608083015184820360808601526133458282613275565b91505060a083015184820360a086015261335f8282613275565b9150508091505092915050565b6000602082019050818103600083015261338681846132c7565b905092915050565b613397816132ae565b82525050565b60006020820190506133b2600083018461338e565b92915050565b6000604051905090565b600080fd5b600080fd5b6133d5816132ae565b81146133e057600080fd5b50565b6000813590506133f2816133cc565b92915050565b60006020828403121561340e5761340d6133c2565b5b600061341c848285016133e3565b91505092915050565b600073ffffffffffffffffffffffffffffffffffffffff82169050919050565b600061345082613425565b9050919050565b61346081613445565b82525050565b600060208201905061347b6000830184613457565b92915050565b600082825260208201905092915050565b600061349d8261321e565b6134a78185613481565b93506134b781856020860161323a565b6134c081613264565b840191505092915050565b600060208201905081810360008301526134e58184613492565b905092915050565b6134f681613445565b811461350157600080fd5b50565b600081359050613513816134ed565b92915050565b600080fd5b600080fd5b7f4e487b7100000000000000000000000000000000000000000000000000000000600052604160045260246000fd5b61355b82613264565b810181811067ffffffffffffffff8211171561357a57613579613523565b5b80604052505050565b600061358d6133b8565b90506135998282613552565b919050565b600067ffffffffffffffff8211156135b9576135b8613523565b5b6135c282613264565b9050602081019050919050565b82818337600083830152505050565b60006135f16135ec8461359e565b613583565b90508281526020810184848401111561360d5761360c61351e565b5b6136188482856135cf565b509392505050565b600082601f83011261363557613634613519565b5b81356136458482602086016135de565b91505092915050565b60008060408385031215613665576136646133c2565b5b600061367385828601613504565b925050602083013567ffffffffffffffff811115613694576136936133c7565b5b6136a085828601613620565b9150509250929050565b600080604083850312156136c1576136c06133c2565b5b600083013567ffffffffffffffff8111156136df576136de6133c7565b5b6136eb85828601613620565b925050602083013567ffffffffffffffff81111561370c5761370b6133c7565b5b61371885828601613620565b9150509250929050565b600060208284031215613738576137376133c2565b5b600061374684828501613504565b91505092915050565b60008115159050919050565b6137648161374f565b82525050565b600060208201905061377f600083018461375b565b92915050565b600080fd5b600080fd5b600061014082840312156137a6576137a5613785565b5b6137b1610140613583565b9050600082013567ffffffffffffffff8111156137d1576137d061378a565b5b6137dd84828501613620565b60008301525060206137f1848285016133e3565b602083015250604082013567ffffffffffffffff8111156138155761381461378a565b5b61382184828501613620565b604083015250606082013567ffffffffffffffff8111156138455761384461378a565b5b61385184828501613620565b6060830152506080613865848285016133e3565b60808301525060a0613879848285016133e3565b60a08301525060c082013567ffffffffffffffff81111561389d5761389c61378a565b5b6138a984828501613620565b60c08301525060e082013567ffffffffffffffff8111156138cd576138cc61378a565b5b6138d984828501613620565b60e08301525061010082013567ffffffffffffffff8111156138fe576138fd61378a565b5b61390a84828501613620565b6101008301525061012082013567ffffffffffffffff8111156139305761392f61378a565b5b61393c84828501613620565b6101208301525092915050565b60006020828403121561395f5761395e6133c2565b5b600082013567ffffffffffffffff81111561397d5761397c6133c7565b5b6139898482850161378f565b91505092915050565b6000602082840312156139a8576139a76133c2565b5b600082013567ffffffffffffffff8111156139c6576139c56133c7565b5b6139d284828501613620565b91505092915050565b600081519050919050565b600082825260208201905092915050565b6000819050602082019050919050565b613a108161374f565b82525050565b60006060830160008301518482036000860152613a338282613275565b91505060208301518482036020860152613a4d8282613275565b9150506040830151613a626040860182613a07565b508091505092915050565b6000613a798383613a16565b905092915050565b6000602082019050919050565b6000613a99826139db565b613aa381856139e6565b935083602082028501613ab5856139f7565b8060005b85811015613af15784840389528151613ad28582613a6d565b9450613add83613a81565b925060208a01995050600181019050613ab9565b50829750879550505050505092915050565b60006020820190508181036000830152613b1d8184613a8e565b905092915050565b613b2e8161374f565b8114613b3957600080fd5b50565b600081359050613b4b81613b25565b92915050565b60008060408385031215613b6857613b676133c2565b5b600083013567ffffffffffffffff811115613b8657613b856133c7565b5b613b9285828601613620565b9250506020613ba385828601613b3c565b9150509250929050565b600081519050919050565b600082825260208201905092915050565b6000819050602082019050919050565b613be281613445565b82525050565b604082016000820151613bfe6000850182613bd9565b506020820151613c116020850182613a07565b50505050565b6000613c238383613be8565b60408301905092915050565b6000602082019050919050565b6000613c4782613bad565b613c518185613bb8565b9350613c5c83613bc9565b8060005b83811015613c8d578151613c748882613c17565b9750613c7f83613c2f565b925050600181019050613c60565b5085935050505092915050565b60006020820190508181036000830152613cb48184613c3c565b905092915050565b600060608284031215613cd257613cd1613785565b5b613cdc6060613583565b9050600082013567ffffffffffffffff811115613cfc57613cfb61378a565b5b613d0884828501613620565b600083015250602082013567ffffffffffffffff811115613d2c57613d2b61378a565b5b613d3884828501613620565b6020830152506040613d4c84828501613b3c565b60408301525092915050565b600060208284031215613d6e57613d6d6133c2565b5b600082013567ffffffffffffffff811115613d8c57613d8b6133c7565b5b613d9884828501613cbc565b91505092915050565b600060c08284031215613db757613db6613785565b5b613dc160c0613583565b9050600082013567ffffffffffffffff811115613de157613de061378a565b5b613ded84828501613620565b6000830152506020613e01848285016133e3565b602083015250604082013567ffffffffffffffff811115613e2557613e2461378a565b5b613e3184828501613620565b604083015250606082013567ffffffffffffffff811115613e5557613e5461378a565b5b613e6184828501613620565b606083015250608082013567ffffffffffffffff811115613e8557613e8461378a565b5b613e9184828501613620565b60808301525060a082013567ffffffffffffffff811115613eb557613eb461378a565b5b613ec184828501613620565b60a08301525092915050565b600060208284031215613ee357613ee26133c2565b5b600082013567ffffffffffffffff811115613f0157613f006133c7565b5b613f0d84828501613da1565b91505092915050565b600081519050919050565b600082825260208201905092915050565b6000819050602082019050919050565b6000613f4e8383613275565b905092915050565b6000602082019050919050565b6000613f6e82613f16565b613f788185613f21565b935083602082028501613f8a85613f32565b8060005b85811015613fc65784840389528151613fa78582613f42565b9450613fb283613f56565b925060208a01995050600181019050613f8e565b50829750879550505050505092915050565b60006020820190508181036000830152613ff28184613f63565b905092915050565b60006101408301600083015184820360008601526140188282613275565b915050602083015161402d60208601826132b8565b50604083015184820360408601526140458282613275565b9150506060830151848203606086015261405f8282613275565b915050608083015161407460808601826132b8565b5060a083015161408760a08601826132b8565b5060c083015184820360c086015261409f8282613275565b91505060e083015184820360e08601526140b98282613275565b9150506101008301518482036101008601526140d58282613275565b9150506101208301518482036101208601526140f18282613275565b9150508091505092915050565b600060208201905081810360008301526141188184613ffa565b905092915050565b7f4e487b7100000000000000000000000000000000000000000000000000000000600052602260045260246000fd5b6000600282049050600182168061416757607f821691505b60208210810361417a57614179614120565b5b50919050565b60008190508160005260206000209050919050565b60006020601f8301049050919050565b600082821b905092915050565b6000600883026141e27fffffffffffffffffffffffffffffffffffffffffffffffffffffffffffffffff826141a5565b6141ec86836141a5565b95508019841693508086168417925050509392505050565b6000819050919050565b600061422961422461421f846132ae565b614204565b6132ae565b9050919050565b6000819050919050565b6142438361420e565b61425761424f82614230565b8484546141b2565b825550505050565b600090565b61426c61425f565b61427781848461423a565b505050565b5b8181101561429b57614290600082614264565b60018101905061427d565b5050565b601f8211156142e0576142b181614180565b6142ba84614195565b810160208510156142c9578190505b6142dd6142d585614195565b83018261427c565b50505b505050565b600082821c905092915050565b6000614303600019846008026142e5565b1980831691505092915050565b600061431c83836142f2565b9150826002028217905092915050565b6143358261321e565b67ffffffffffffffff81111561434e5761434d613523565b5b614358825461414f565b61436382828561429f565b600060209050601f8311600181146143965760008415614384578287015190505b61438e8582614310565b8655506143f6565b601f1984166143a486614180565b60005b828110156143cc578489015182556001820191506020850194506020810190506143a7565b868310156143e957848901516143e5601f8916826142f2565b8355505b6001600288020188555050505b505050505050565b7f616c726561647920726567697374657265640000000000000000000000000000600082015250565b6000614434601283613481565b915061443f826143fe565b602082019050919050565b6000602082019050818103600083015261446381614427565b9050919050565b600081905092915050565b60006144808261321e565b61448a818561446a565b935061449a81856020860161323a565b80840191505092915050565b60006144b28284614475565b915081905092915050565b7f446f63746f720000000000000000000000000000000000000000000000000000600082015250565b60006144f360068361446a565b91506144fe826144bd565b600682019050919050565b6000614514826144e6565b9150819050919050565b7f50617469656e7400000000000000000000000000000000000000000000000000600082015250565b600061455460078361446a565b915061455f8261451e565b600782019050919050565b600061457582614547565b9150819050919050565b7f4e487b7100000000000000000000000000000000000000000000000000000000600052601160045260246000fd5b60006145b9826132ae565b91507fffffffffffffffffffffffffffffffffffffffffffffffffffffffffffffffff82036145eb576145ea61457f565b5b600182019050919050565b7f4e487b7100000000000000000000000000000000000000000000000000000000600052603260045260246000fd5b600081905092915050565b60008190508160005260206000209050919050565b600081546146528161414f565b61465c8186614625565b94506001821660008114614677576001811461468c576146bf565b60ff19831686528115158202860193506146bf565b61469585614630565b60005b838110156146b757815481890152600182019150602081019050614698565b838801955050505b50505092915050565b60006146d48284614645565b915081905092915050565b7f4e6f7420616c6c6f776564000000000000000000000000000000000000000000600082015250565b6000614715600b83613481565b9150614720826146df565b602082019050919050565b6000602082019050818103600083015261474481614708565b9050919050565b7f596f7520446f6e6f742048617665204163636573730000000000000000000000600082015250565b6000614781601583613481565b915061478c8261474b565b602082019050919050565b600060208201905081810360008301526147b081614774565b905091905056fea2646970667358221220e535072859f96b1cacd8027ae0f0eef81f81cda4e8e35ea2f26b09decedf9b8264736f6c63430008110033",
  "linkReferences": {},
  "deployedLinkReferences": {}
}