{
  "_format": "hh-sol-artifact-1",
  "contractName": "Authentication",
  "sourceName": "contracts/Authentication.sol",
  "abi": [
    {
      "inputs": [],
      "stateMutability": "nonpayable",
      "type": "constructor"
    },
    {
      "stateMutability": "payable",
      "type": "fallback"
    },
    {
      "inputs": [],
      "name": "getSignatureHash",
      "outputs": [
        {
          "internalType": "string",
          "name": "",
          "type": "string"
        }
      ],
      "stateMutability": "view",
      "type": "function"
    },
    {
      "inputs": [],
      "name": "getUserAddress",
      "outputs": [
        {
          "internalType": "address",
          "name": "",
          "type": "address"
        }
      ],
      "stateMutability": "view",
      "type": "function"
    },
    {
      "inputs": [],
      "name": "nbOfUsers",
      "outputs": [
        {
          "internalType": "uint256",
          "name": "",
          "type": "uint256"
        }
      ],
      "stateMutability": "view",
      "type": "function"
    },
    {
      "inputs": [
        {
          "internalType": "string",
          "name": "_signature",
          "type": "string"
        }
      ],
      "name": "register",
      "outputs": [],
      "stateMutability": "nonpayable",
      "type": "function"
    },
    {
      "stateMutability": "payable",
      "type": "receive"
    }
  ],
  "bytecode": "0x608060405234801561001057600080fd5b5060008081905550610bfb806100276000396000f3fe6080604052600436106100435760003560e01c8063126793231461004c578063c127ae4114610077578063ebc3eee8146100a2578063f2c298be146100cd5761004a565b3661004a57005b005b34801561005857600080fd5b506100616100f6565b60405161006e91906104dd565b60405180910390f35b34801561008357600080fd5b5061008c6100fc565b6040516100999190610588565b60405180910390f35b3480156100ae57600080fd5b506100b761029e565b6040516100c491906105eb565b60405180910390f35b3480156100d957600080fd5b506100f460048036038101906100ef919061074f565b610308565b005b60005481565b6060600160003373ffffffffffffffffffffffffffffffffffffffff1673ffffffffffffffffffffffffffffffffffffffff16815260200190815260200160002060010160009054906101000a900473ffffffffffffffffffffffffffffffffffffffff1673ffffffffffffffffffffffffffffffffffffffff163373ffffffffffffffffffffffffffffffffffffffff16146101ce576040517f08c379a00000000000000000000000000000000000000000000000000000000081526004016101c5906107e4565b60405180910390fd5b600160003373ffffffffffffffffffffffffffffffffffffffff1673ffffffffffffffffffffffffffffffffffffffff168152602001908152602001600020600001805461021b90610833565b80601f016020809104026020016040519081016040528092919081815260200182805461024790610833565b80156102945780601f1061026957610100808354040283529160200191610294565b820191906000526020600020905b81548152906001019060200180831161027757829003601f168201915b5050505050905090565b6000600160003373ffffffffffffffffffffffffffffffffffffffff1673ffffffffffffffffffffffffffffffffffffffff16815260200190815260200160002060010160009054906101000a900473ffffffffffffffffffffffffffffffffffffffff16905090565b600073ffffffffffffffffffffffffffffffffffffffff16600160003373ffffffffffffffffffffffffffffffffffffffff1673ffffffffffffffffffffffffffffffffffffffff16815260200190815260200160002060010160009054906101000a900473ffffffffffffffffffffffffffffffffffffffff1673ffffffffffffffffffffffffffffffffffffffff16146103d9576040517f08c379a00000000000000000000000000000000000000000000000000000000081526004016103d0906108b0565b60405180910390fd5b80600160003373ffffffffffffffffffffffffffffffffffffffff1673ffffffffffffffffffffffffffffffffffffffff16815260200190815260200160002060000190816104289190610a7c565b5033600160003373ffffffffffffffffffffffffffffffffffffffff1673ffffffffffffffffffffffffffffffffffffffff16815260200190815260200160002060010160006101000a81548173ffffffffffffffffffffffffffffffffffffffff021916908373ffffffffffffffffffffffffffffffffffffffff1602179055506000808154809291906104bc90610b7d565b919050555050565b6000819050919050565b6104d7816104c4565b82525050565b60006020820190506104f260008301846104ce565b92915050565b600081519050919050565b600082825260208201905092915050565b60005b83811015610532578082015181840152602081019050610517565b60008484015250505050565b6000601f19601f8301169050919050565b600061055a826104f8565b6105648185610503565b9350610574818560208601610514565b61057d8161053e565b840191505092915050565b600060208201905081810360008301526105a2818461054f565b905092915050565b600073ffffffffffffffffffffffffffffffffffffffff82169050919050565b60006105d5826105aa565b9050919050565b6105e5816105ca565b82525050565b600060208201905061060060008301846105dc565b92915050565b6000604051905090565b600080fd5b600080fd5b600080fd5b600080fd5b7f4e487b7100000000000000000000000000000000000000000000000000000000600052604160045260246000fd5b61065c8261053e565b810181811067ffffffffffffffff8211171561067b5761067a610624565b5b80604052505050565b600061068e610606565b905061069a8282610653565b919050565b600067ffffffffffffffff8211156106ba576106b9610624565b5b6106c38261053e565b9050602081019050919050565b82818337600083830152505050565b60006106f26106ed8461069f565b610684565b90508281526020810184848401111561070e5761070d61061f565b5b6107198482856106d0565b509392505050565b600082601f8301126107365761073561061a565b5b81356107468482602086016106df565b91505092915050565b60006020828403121561076557610764610610565b5b600082013567ffffffffffffffff81111561078357610782610615565b5b61078f84828501610721565b91505092915050565b7f4e6f7420616c6c6f776564000000000000000000000000000000000000000000600082015250565b60006107ce600b83610503565b91506107d982610798565b602082019050919050565b600060208201905081810360008301526107fd816107c1565b9050919050565b7f4e487b7100000000000000000000000000000000000000000000000000000000600052602260045260246000fd5b6000600282049050600182168061084b57607f821691505b60208210810361085e5761085d610804565b5b50919050565b7f616c726561647920726567697374657265640000000000000000000000000000600082015250565b600061089a601283610503565b91506108a582610864565b602082019050919050565b600060208201905081810360008301526108c98161088d565b9050919050565b60008190508160005260206000209050919050565b60006020601f8301049050919050565b600082821b905092915050565b6000600883026109327fffffffffffffffffffffffffffffffffffffffffffffffffffffffffffffffff826108f5565b61093c86836108f5565b95508019841693508086168417925050509392505050565b6000819050919050565b600061097961097461096f846104c4565b610954565b6104c4565b9050919050565b6000819050919050565b6109938361095e565b6109a761099f82610980565b848454610902565b825550505050565b600090565b6109bc6109af565b6109c781848461098a565b505050565b5b818110156109eb576109e06000826109b4565b6001810190506109cd565b5050565b601f821115610a3057610a01816108d0565b610a0a846108e5565b81016020851015610a19578190505b610a2d610a25856108e5565b8301826109cc565b50505b505050565b600082821c905092915050565b6000610a5360001984600802610a35565b1980831691505092915050565b6000610a6c8383610a42565b9150826002028217905092915050565b610a85826104f8565b67ffffffffffffffff811115610a9e57610a9d610624565b5b610aa88254610833565b610ab38282856109ef565b600060209050601f831160018114610ae65760008415610ad4578287015190505b610ade8582610a60565b865550610b46565b601f198416610af4866108d0565b60005b82811015610b1c57848901518255600182019150602085019450602081019050610af7565b86831015610b395784890151610b35601f891682610a42565b8355505b6001600288020188555050505b505050505050565b7f4e487b7100000000000000000000000000000000000000000000000000000000600052601160045260246000fd5b6000610b88826104c4565b91507fffffffffffffffffffffffffffffffffffffffffffffffffffffffffffffffff8203610bba57610bb9610b4e565b5b60018201905091905056fea26469706673582212207c7c314bef9870e2e40f9093b0047af009c80cf2953c5e9ce1cafd3b9c4fa43864736f6c63430008110033",
  "linkReferences": {},
  "deployedLinkReferences": {}
}